:020000040000FA
:060000000A128A110C280F
:10000800FE00030EF4000A08F5000A128A11AE2851
:100018000A128A110F28F001F101F201F30183019C
:100028000A128A1117280A128A1197200A128A11AD
:100038006030831603178800890180308316031304
:1000480087000730890070308F040F149F131F1228
:100058009F12831203131F139F171F08C3391438E5
:100068009F004230F600F60B372800008312031376
:100078001F149F14850187018801831203139F1899
:10008800462847288A281F0CF600760C0F39063AAE
:10009800031D4F2850286F281E08F600F70103108B
:1000A800F60DF70D0310F60DF70D7608F00077083A
:1000B800F100831603131E08F600F7017608F0070F
:1000C8000318F10A7708F107831203131F08C339CD
:1000D80014389F0083281F0CF600760C0F39053A58
:1000E800031D7728782883281E08F600F70176086C
:1000F800F2007708F3001F08C33918389F00213031
:10010800F600F60B8528831203139F141A30F700A4
:10011800F830F600F60B8E28F70B8E2800004128E1
:100128000A128A110C28831603131812181583163D
:1001380003178715CF308316031399009A0183128A
:1001480003139817181318168316031398160C120E
:100158008C12080075088A00740E8300FE0E7E0E4D
:0201680009008C
:04400E00D420FF3F7C
:00000001FF
